:020000040800F2
:1000000068060020290200083102000833020008B7
:10001000350200083702000839020008000000001D
:100020000000000000000000000000003B0200088B
:100030003D020008000000003F020008850500089E
:10004000430200084302000843020008430200087C
:10005000430200084302000843020008430200086C
:10006000430200084302000843020008430200085C
:10007000430200084302000843020008430200084C
:10008000430200084302000843020008430200083C
:10009000430200084302000843020008430200082C
:1000A000430200084302000843020008430200081C
:1000B000430200084302000843020008430200080C
:1000C00043020008430200084302000843020008FC
:1000D00043020008430200084302000843020008EC
:1000E00043020008430200084302000843020008DC
:1000F00043020008430200084302000843020008CC
:1001000043020008430200084302000843020008BB
:1001100043020008430200084302000843020008AB
:10012000430200084302000843020008430200089B
:10013000430200084302000843020008430200088B
:10014000430200084302000843020008430200087B
:10015000430200084302000843020008430200086B
:10016000430200084302000843020008430200085B
:100170004302000843020008430200080000000098
:10018000430200084302000800F002F800F03CF8C7
:100190000AA090E8000C82448344AAF10107DA45E2
:1001A00001D100F031F8AFF2090EBAE80F0013F0F8
:1001B000010F18BFFB1A43F001031847180700008E
:1001C00038070000103A24BF78C878C1FAD852071F
:1001D00024BF30C830C144BF04680C6070470000C1
:1001E0000023002400250026103A28BF78C1FBD840
:1001F000520728BF30C148BF0B6070471FB500F0E1
:1002000057FB1FBD10B510BD00F031F81146FFF7C8
:10021000F5FF00F05BFA00F04FF803B4FFF7F2FFD0
:1002200003BC00F057F80000094880470948004720
:10023000FEE7FEE7FEE7FEE7FEE7FEE7FEE7FEE796
:10024000FEE7FEE704480549054A064B70470000F3
:100250005506000889010008680000206806002093
:10026000680200206802002070477047704775469A
:1002700000F02CF8AE4605006946534620F0070012
:10028000854618B020B5FFF7DDFFBDE820404FF0F0
:1002900000064FF000074FF000084FF0000B21F070
:1002A0000701AC46ACE8C009ACE8C009ACE8C0093D
:1002B000ACE8C0098D46704710B50446AFF3008026
:1002C0002046BDE81040FFF7A8BF00000048704777
:1002D0000800002001491820ABBEFEE726000200FE
:1002E0007047826942EA01428261704782690A432B
:1002F0008261704710B55F48006840F008005D49B2
:1003000008605D48006820F000705B49086008469E
:10031000006840F080700860081D006820F480507C
:10032000091D086054480C30006820F040705249A4
:100330000C310860081F006840F08070091F0860D9
:100340000846006820F0007008604B48006820F004
:100350000060494908600846006840F08060086015
:10036000081D006820F40050091D086042480C3048
:10037000006820F0406040490C310860081F0068A8
:1003800040F08060091F08600846006820F00060A7
:1003900008603948006820F0005037490860084676
:1003A000006840F080500860081D006820F480401C
:1003B000091D086030480C30006820F040502E497C
:1003C0000C310860081F006840F08050091F086069
:1003D0000846006820F0005008602748006820F0B8
:1003E0000040254908600846006840F080400860E9
:1003F000081D006820F40040091D08601E480C30EC
:10040000006820F040401C490C310860081F00685B
:1004100040F08040091F08600846006820F0004056
:1004200008601548006820F4006013490860084619
:10043000006840F480600860081D006820F020001B
:10044000091D08600C480C30006820F440600A491F
:100450000C310860081F006840F48060091F0860C4
:100460000846006820F40060086020210248FFF779
:100470003DFF10BD30380240000C02403F4800688C
:1004800020F03F003D4908600846006847F6C0710B
:1004900088433A4908600846006820F44030086004
:1004A0000846006820F0706008600846006820F484
:1004B00080000860081F006840F48030091F086051
:1004C00000BF2E48001F006800F400300028F8D05C
:1004D0002A48001D00682949091D0860084600686F
:1004E00040F4A05008600846006840F400400860EE
:1004F000081F006840F00800091F086008460068EF
:1005000040F4A84008600846006820F440300860C5
:100510000846006840F4800008600846006840F023
:10052000E0600860081F006840F08070091F0860E4
:1005300000BF1248001F006800F000700028F8D0CB
:100540000F48006840F2057108430D4908600B48E8
:10055000001D006820F003000849091D08600846D6
:10056000006840F00200086000BF0448001D0068F9
:1005700000F008000028F8D070470000043802405E
:10058000003C024002480068401E01490860704774
:100590000400002070B50020002202230024022164
:1005A000274D2D6805F00C0020B1042806D008283E
:1005B00034D107E0234D244E356033E0234D224EE5
:1005C00035602FE01E4D2D1F2D68C5F380541C4D46
:1005D0002D1F2D6805F03F0154B11C4DB5FBF1F501
:1005E000174E361F3668C6F3881605FB06F209E07B
:1005F000144DB5FBF1F5124E361F3668C6F388165A
:1006000005FB06F20E4D2D1F2D68C5F301456D1C2F
:100610006B00B2FBF3F50C4E356003E0094D0A4E5A
:10062000356000BF00BF064D2D68C5F30315084EA9
:10063000705D054D2D68C540034E356070BD0000EE
:10064000083802400024F4000000002000127A0064
:10065000BA0800081448006840F4700012490860A5
:100660001248006840F001001049086000200F495E
:10067000083108600D4800680D4908400B490860C2
:100680000C48091D0860081F006820F48020091F1D
:100690000860002005490C3108604FF000600249F5
:1006A000803908607047000088ED00E000380240A3
:1006B000FFFFF6FE103000240349086000BF024926
:1006C00009680029FBD17047040000200124FFF7CE
:1006D000D5FEFFF70FFEFFF75DFF1B4800684FF4E4
:1006E0007A72B0FBF2F1481EB0F1807F00D31BE0BC
:1006F000481E4FF0E022506150170F22002807DA01
:1007000013071E0E114B00F00F052D1F5E5503E061
:1007100013071D0E0E4B1D5400BF00204FF0E022AA
:1007200090610720106100BF00F03EF80AE020460B
:1007300000F010F84FF4FA70FFF7BEFF6006040EE9
:1007400004B90124F3E700000000002018ED00E0E8
:1007500000E400E070B50546002417E005FA04F057
:1007600000F0800020B102210E48FFF7BFFD03E03A
:1007700002210C48FFF7B5FD20210A48FFF7B6FD1E
:1007800020210848FFF7ADFD601CC4B2082CE5DB52
:1007900008210448FFF7AAFD08210248FFF7A1FD40
:1007A00070BD0000000002403F48006840F00100BA
:1007B0003D4908603D48006820F008003B4908605A
:1007C0000846006840F0040008600846406820F0D1
:1007D000020048600846C06820F00C00C860084667
:1007E000806840F0040088600846806820F00800B7
:1007F00088600846006820F08000086008460068AD
:1008000040F0400008600846406820F0080048605A
:100810000846C06820F0C000C8600846806840F004
:10082000400088600846806820F0800088600846A4
:10083000006820F4006008600846006840F48060AA
:1008400008600846406820F0200048600846C068FC
:1008500020F44060C8600846806840F4806088608A
:100860000846806820F4006088600846006820F42C
:10087000004008600846006840F480400860084670
:10088000406820F0800048600846C06820F440407E
:10089000C8600846806840F48040886008468068E8
:1008A00020F4004088607047303802400000024069
:1008B0004FF04070E1EE100A7047000000000000A9
:1008C00000000102030406070809000000000102FD
:1008D00003040000F40800080000002008000000E5
:1008E000C4010008FC0800080800002060060000A1
:0C08F000E00100080024F40000000000FB
:040000050800018965
:00000001FF
